S00F000043535F414D54382E7372656306
S113000012C019C12BC02AC029C028C027C026C0CD
S113001025C024C023C022C021C020C0CDC01EC022
S11300201DC01CC01BC011241FBECFE5D4E0DEBF21
S1130030CDBF10E0A0E6B0E0E6E6F2E002C0059035
S11300400D92A636B107D9F720E0A6E6B0E001C0CC
S11300501D92AC36B207E1F758D003C1D1CF5D9BF6
S1130060FECF8CB90895899A8898909A10BC83E33E
S113007089B986E880BD88E18AB98FE19EE4019759
S1130080F1F700C0000080E0EACF7093670060934E
S11300906600E5DF80916700E2DF80916600DFCFD4
S11300A087B3866087BB8FB58B608FBD8EB58B6041
S11300B08EBD8FB5806A8FBD8EB581608EBD8FB5C4
S11300C081608FBD08959BBD8ABD99BD88BD08958B
S11300D03E9A86B18F6886B92FEF84E39CE0215065
S11300E080409040E1F700C00000089597B1987FE8
S11300F08770892B87B9369A3699FECF84B195B12A
S11301000895379A0895309808958F9AB89A979ACF
S1130110C09A81B3837F81BBDBDFC2DFA4DF80E0D1
S113012090E0D1DF80E48BBF85B7816085BF789490
S1130130E8DF80916300DADF90936B0080936A00BC
S11301408FE097E20197F1F700C000008091620010
S1130150CDDF90936900809368008FE097E2019768
S1130160F1F700C00000809164008823D1F0609111
S11301706A0070916B008091610087DF8FE097E2E5
S11301800197F1F700C00000609168007091690068
S1130190809160007ADF8FE097E20197F1F700C069
S11301A00000B1DF9FEF29E688E1915020408040B4
S11301B0E1F700C00000BCCF1F920F920FB60F9260
S11301C011242F933F934F935F936F937F938F9358
S11301D09F93AF93BF93EF93FF93809168009091A7
S11301E069008639910518F48CE291E012C080917F
S11301F0680090916900880F991F8115944018F048
S11302008FEF93E006C08091680090916900880F99
S1130210991F59DFFF91EF91BF91AF919F918F91FA
S11302207F916F915F914F913F912F910F900FBEEE
S11302300F901F9018951F920F920FB60F921124D2
S11302408F9380916400813019F41092640003C08C
S113025081E0809364008F910F900FBE0F901F90E8
S10902601895F894FFCF8D
S109026621200006010046
S9030000FC
