S00F000043535F414D54382E7372656306
S113000012C02BC12BC02AC029C028C027C026C0BB
S113001025C024C023C022C021C020C0DDC01EC012
S11300201DC01CC01BC011241FBECFE5D4E0DEBF21
S1130030CDBF10E0A0E6B0E0EAE8F2E002C005902F
S11300400D92A436B107D9F720E0A4E6B0E001C0D0
S11300501D92AB36B207E1F768D015C1D1CF5D9BD5
S1130060FECF8CB90895CF93DF93D62FC42FF7DF3B
S11300708D2FF5DF8C2FF3DFDF91CF910895899ACF
S11300808898909A10BC83E389B986E880BD88E19A
S11300908AB98FE19EE40197F1F700C0000040E0C7
S11300A060E080E0E0DF0895709365006093640091
S11300B0D6DF80916500D3DF80916400D0DF08959E
S11300C087B3866087BB8FB58B608FBD8EB58B6021
S11300D08EBD8FB5806A8FBD8EB581608EBD8FB5A4
S11300E081608FBD08959BBD8ABD99BD88BD08956B
S11300F03E9A86B18F6886B92FEF84E39CE0215045
S113010080409040E1F700C00000089597B1987FC7
S11301108770892B87B9369A3699FECF84B195B109
S11301200895379A0895309808958F9AB89A979AAF
S1130130C09A81B3837F81BBDBDFC2DFA0DF80E0B5
S113014090E0D1DF80E48BBF85B7816085BF789470
S1130150E8DF80916300DADF9093690080936800A0
S11301608FE097E20197F1F700C0000080916200F0
S1130170CDDF90936700809366008FE097E201974C
S1130180F1F700C0000080916A008823D1F06091EB
S11301906800709169008091610086DF8FE097E2CA
S11301A00197F1F700C0000060916600709167004C
S11301B08091600079DF8FE097E20197F1F700C04A
S11301C00000B1DF9FEF29E688E191502040804094
S11301D0E1F700C00000BCCF1F920F920FB60F9240
S11301E011242F933F934F935F936F937F938F9338
S11301F09F93AF93BF93EF93FF9380916600909189
S113020067008639910520F48CE291E06CDF14C01C
S11302108091660090916700880F991F8115944022
S113022020F08FEF93E05FDF07C08091660090912C
S11302306700880F991F57DFFF91EF91BF91AF912E
S11302409F918F917F916F915F914F913F912F91EA
S11302500F900FBE0F901F9018951F920F920FB61C
S11302600F9211248F9380916A00813019F41092B7
S11302706A0003C081E080936A008F910F900FBEE3
S10D02800F901F901895F894FFCF1B
S107028A2120000625
S9030000FC
