:1000000012C0D8C02BC02AC029C028C027C026C013
:1000100025C024C023C022C021C020C08AC01EC069
:100020001DC01CC01BC011241FBECFE5D4E0DEBF25
:10003000CDBF10E0A0E6B0E0EEEBF2E002C005902C
:100040000D92A236B107D9F720E0A2E6B0E001C0D8
:100050001D92AD36B207E1F7D8D02FC1D1CF5D9B4D
:10006000FECF8CB90895CF93DF93D62FC42FF7DF3F
:100070008D2FF5DF8C2FF3DFDF91CF910895899AD3
:100080008898909A10BC83E389B986E880BD88E19E
:100090008AB98FE19EE40197F1F700C0000040E0CB
:1000A00060E080E0E0DF0895709363006093620099
:1000B000D6DF80916300D3DF80916200D0DF0895A6
:1000C0005F9BFECF8CB1089587B3866087BB8FB5E9
:1000D0008B608FBD8EB58B608EBD8FB5806A8FBDF6
:1000E0008EB581608EBD8FB581608FBD08959BBD3B
:1000F0008ABD99BD88BD08953E9A86B18F6886B93C
:100100002FEF84E39CE0215080409040E1F700C055
:100110000000089597B1987F8770892B87B9369A28
:100120003699FECF84B195B10895379A08953098E5
:1001300008951F920F920FB60F9211242F933F93A1
:100140004F935F936F937F938F939F93AF93BF93DF
:10015000EF93FF938091640090916500863991053B
:1001600020F48CE291E0C3DF14C080916400909190
:100170006500880F991F8115944020F08FEF93E060
:10018000B6DF07C08091640090916500880F991FC9
:10019000AEDFFF91EF91BF91AF919F918F917F91D2
:1001A0006F915F914F913F912F910F900FBE0F90E4
:1001B0001F9018951F920F920FB60F9211248F93D4
:1001C00080916C00813019F410926C0003C081E0C2
:1001D00080936C008F910F900FBE0F901F90189519
:1001E000CF93DF936DDFC8E6D0E0888369DF898332
:1001F00067DF8A83DF91CF9108958091680083360D
:1002000019F481E080936B0008958F9AB89A979AB9
:10021000C09A81B3837F81BB6FDF56DF30DF80E020
:1002200090E065DF80E48BBF85B7816085BF7894FF
:10023000C8E6D0E07ADF809161006CDF90936700C0
:10024000809366008FE097E20197F1F700C000000D
:10025000809160005FDF90936500809364008FE081
:1002600097E20197F1F700C0000080916C008823AD
:1002700071F04FEF6FEF8FEFF6DEB2DF8FEC97E0AC
:100280000197F1F700C00000B8DF10926C00809178
:100290006B00882339F089813DDFBC01898104DF4F
:1002A00010926B0044DF9FEF29E688E191502040D7
:0E02B0008040E1F700C00000BDCFF894FFCF02
:0202BE00000638
:00000001FF
